:020000040800F2
:10000000005000200929000855270008572700083C
:10001000592700085B2700085D2700080000000042
:100020000000000000000000000000005F27000842
:10003000612700080000000063270008652700080A
:1000400051290008512900085129000851290008A8
:100050005129000851290008512900085129000898
:100060005129000851290008512900085129000888
:100070005129000869270008512900085129000862
:100080005129000851290008512900085129000868
:100090005129000851290008512900085129000858
:1000A0005129000851290008512900085129000848
:1000B0007527000851290008512900085129000816
:1000C00051290008812700085129000851290008FA
:1000D0005129000851290008512900085129000818
:1000E000512900085129000851290008000000008A
:1000F0000000000000000000000000000000000000
:0C01000000000000000000005FF808F1A3
:1001100010B5054C237833B9044B13B10448AFF341
:1001200000800123237010BDE801002000000000C2
:10013000188D000808B5034B1BB103490348AFF302
:10014000008008BD00000000EC010020188D0008B0
:10015000034613F8012B002AFBD1181A0138704707
:100160004FF0FF0C1CEAD0521EBF1CEAD15392EA9A
:100170000C0F93EA0C0F6FD01A4480EA010C400276
:1001800018BF5FEA41211ED04FF0006343EA5010D0
:1001900043EA5111A0FB01310CF00040B1F5000F12
:1001A0003EBF490041EAD3715B0040EA010062F1C1
:1001B0007F02FD2A1DD8B3F1004F40EBC25008BFAB
:1001C00020F00100704790F0000F0CF0004C08BFC9
:1001D00049024CEA502040EA51207F3AC2BFD2F196
:1001E000FF0340EAC250704740F400004FF00003A4
:1001F000013A5DDC12F1190FDCBF00F000407047DE
:10020000C2F10002410021FA02F1C2F1200200FA1B
:1002100002FC5FEA310040F1000053EA4C0308BFE2
:1002200020EADC70704792F0000F00F0004C02BF33
:10023000400010F4000F013AF9D040EA0C0093F0AE
:10024000000F01F0004C02BF490011F4000F013B08
:10025000F9D041EA0C018FE70CEAD15392EA0C0F76
:1002600018BF93EA0C0F0AD030F0004C18BF31F0E1
:10027000004CD8D180EA010000F00040704790F0B7
:10028000000F17BF90F0004F084691F0000F91F05B
:10029000004F14D092EA0C0F01D142020FD193EA21
:1002A0000C0F03D14B0218BF084608D180EA0100A9
:1002B00000F0004040F0FE4040F40000704740F085
:1002C000FE4040F44000704781F0004102E000BF72
:1002D00083F0004330B54FEA41044FEA430594EA06
:1002E000050F08BF90EA020F1FBF54EA000C55EA41
:1002F000020C7FEA645C7FEA655C00F0E2804FEA12
:100300005454D4EB5555B8BF6D420CDD2C4480EAF3
:10031000020281EA030382EA000083EA010180EA23
:10032000020281EA0303362D88BF30BD11F0004F71
:100330004FEA01314FF4801C4CEA113102D04042A7
:1003400061EB410113F0004F4FEA03334CEA1333E2
:1003500002D0524263EB430394EA050F00F0A780FA
:10036000A4F10104D5F1200E0DDB02FA0EFC22FAF5
:1003700005F2801841F1000103FA0EF2801843FAE9
:1003800005F359410EE0A5F120050EF1200E012ADA
:1003900003FA0EFC28BF4CF0020C43FA05F3C01818
:1003A00051EBE37101F0004507D54FF0000EDCF191
:1003B000000C7EEB00006EEB0101B1F5801F1BD33A
:1003C000B1F5001F0CD349085FEA30004FEA3C0C3E
:1003D00004F101044FEA445212F5800F80F09A8034
:1003E000BCF1004F08BF5FEA500C50F1000041EB38
:1003F000045141EA050130BD5FEA4C0C404141EB3C
:100400000101013C28BFB1F5801FE9D291F0000F36
:1004100004BF01460020B1FA81F308BF2033A3F1E5
:100420000B03B3F120020CDA0C3208DD02F1140CDC
:10043000C2F10C0201FA0CF021FA02F10CE002F117
:100440001402D8BFC2F1200C01FA02F120FA0CFC10
:10045000DCBF41EA0C019040E41AA2BF01EB045159
:10046000294330BD6FEA04041F3C1CDA0C340EDC57
:1004700004F11404C4F1200220FA04F001FA02F39A
:1004800040EA030021FA04F345EA030130BDC4F158
:100490000C04C4F1200220FA02F001FA04F340EA4D
:1004A0000300294630BD21FA04F0294630BD94F0FE
:1004B000000F83F4801306BF81F480110134013DE5
:1004C0004EE77FEA645C18BF7FEA655C29D094EA56
:1004D000050F08BF90EA020F05D054EA000C04BFD4
:1004E0001946104630BD91EA030F1EBF00210020BF
:1004F00030BD5FEA545C05D14000494128BF41F05E
:10050000004130BD14F580043CBF01F5801130BDC1
:1005100001F0004545F0FE4141F470014FF000004C
:1005200030BD7FEA645C1ABF194610467FEA655CFD
:100530001CBF0B46024650EA013406BF52EA03359F
:1005400091EA030F41F4002130BD00BF90F0000F8D
:1005500004BF0021704730B54FF4806404F13204C9
:100560004FF000054FF0000150E700BF90F0000F82
:1005700004BF0021704730B54FF4806404F13204A9
:1005800010F0004548BF40424FF000013EE700BF79
:1005900042004FEAE2014FEA31014FEA02701FBF09
:1005A00012F07F4393F07F4F81F06051704732F03B
:1005B0007F4208BF704793F07F4F04BF41F4002192
:1005C000704730B54FF4607401F0004521F00041F0
:1005D0001CE700BF50EA010208BF704730B54FF07A
:1005E00000050AE050EA010208BF704730B511F07B
:1005F000004502D5404261EB41014FF4806404F1B3
:1006000032045FEA915C3FF4D8AE4FF003025FEA38
:10061000DC0C18BF03325FEADC0C18BF033202EBBC
:10062000DC02C2F1200300FA03FC20FA02F001FA16
:1006300003FE40EA0E0021FA02F11444BDE600BFB9
:1006400070B54FF0FF0C4CF4E06C1CEA11541DBF68
:100650001CEA135594EA0C0F95EA0C0F00F0DEF833
:100660002C4481EA030621EA4C5123EA4C5350EA18
:10067000013518BF52EA033541F4801143F4801369
:1006800038D0A0FB02CE4FF00005E1FB02E506F0FA
:100690000042E0FB03E54FF00006E1FB03569CF04F
:1006A000000F18BF4EF0010EA4F1FF04B6F5007F55
:1006B00064F5407404D25FEA4E0E6D4146EB0606C7
:1006C00042EAC62141EA55514FEAC52040EA5E5050
:1006D0004FEACE2EB4F1FD0C88BFBCF5E06F1ED8FA
:1006E000BEF1004F08BF5FEA500E50F1000041EB31
:1006F000045170BD06F0004646EA010140EA0200DE
:1007000081EA0301B4EB5C04C2BFD4EB0C0541EAFF
:10071000045170BD41F480114FF0000E013C00F314
:10072000AB8014F1360FDEBF002001F0004170BD38
:10073000C4F10004203C35DA0C341BDC04F1140451
:10074000C4F1200500FA05F320FA04F001FA05F2DD
:1007500040EA020001F0004221F0004110EBD370AA
:1007600021FA04F642EB06015EEA430E08BF20EAD6
:10077000D37070BDC4F10C04C4F1200500FA04F379
:1007800020FA05F001FA04F240EA020001F000410B
:1007900010EBD37041F100015EEA430E08BF20EA7E
:1007A000D37070BDC4F1200500FA05F24EEA020EC6
:1007B00020FA04F301FA05F243EA020321FA04F0F5
:1007C00001F0004121FA04F220EA020000EBD370AC
:1007D0005EEA430E08BF20EAD37070BD94F0000FAC
:1007E0000FD101F00046400041EB010111F4801FE0
:1007F00008BF013CF7D041EA060195F0000F18BF91
:10080000704703F00046520043EB030313F4801FCC
:1008100008BF013DF7D043EA0603704794EA0C0F86
:100820000CEA135518BF95EA0C0F0CD050EA41069C
:1008300018BF52EA4306D1D181EA030101F0004119
:100840004FF0000070BD50EA410606BF1046194641
:1008500052EA430619D094EA0C0F02D150EA01364D
:1008600013D195EA0C0F05D152EA03361CBF10468E
:1008700019460AD181EA030101F0004141F0FE412D
:1008800041F470014FF0000070BD41F0FE4141F4B1
:10089000780170BD70B54FF0FF0C4CF4E06C1CEAB1
:1008A00011541DBF1CEA135594EA0C0F95EA0C0F66
:1008B00000F0A7F8A4EB050481EA030E52EA033521
:1008C0004FEA013100F088804FEA03334FF0805542
:1008D00045EA131343EA12634FEA022245EA11156F
:1008E00045EA10654FEA00260EF000419D4208BF20
:1008F000964244F1FD0404F5407402D25B084FEACD
:100900003202B61A65EB03055B084FEA32024FF478
:1009100080104FF4002CB6EB020E75EB030E22BFD5
:10092000B61A754640EA0C005B084FEA3202B6EB95
:10093000020E75EB030E22BFB61A754640EA5C0044
:100940005B084FEA3202B6EB020E75EB030E22BFD4
:10095000B61A754640EA9C005B084FEA3202B6EBD5
:10096000020E75EB030E22BFB61A754640EADC0094
:1009700055EA060E18D04FEA051545EA16754FEAF6
:1009800006164FEAC30343EA52734FEAC2025FEA14
:100990001C1CC0D111F4801F0BD141EA00014FF0A3
:1009A00000004FF0004CB6E711F4801F04BF014374
:1009B0000020B4F1FD0C88BFBCF5E06F3FF6AFAE90
:1009C000B5EB030C04BFB6EB020C5FEA500C50F120
:1009D000000041EB045170BD0EF0004E4EEA1131A3
:1009E00014EB5C04C2BFD4EB0C0541EA045170BDAA
:1009F00041F480114FF0000E013C90E645EA060EEE
:100A00008DE60CEA135594EA0C0F08BF95EA0C0F1B
:100A10003FF43BAF94EA0C0F0AD150EA01347FF463
:100A200034AF95EA0C0F7FF425AF104619462CE73A
:100A300095EA0C0F06D152EA03353FF4FDAE10469D
:100A4000194622E750EA410618BF52EA43067FF4EE
:100A5000C5AE50EA41047FF40DAF52EA43057FF47E
:100A6000EBAE12E74FF0FF3C06E000BF4FF0010C89
:100A700002E000BF4FF0010C4DF804CD4FEA410CED
:100A80007FEA6C5C4FEA430C18BF7FEA6C5C1BD0BA
:100A900001B050EA410C0CBF52EA430C91EA030F3B
:100AA00002BF90EA020F0020704710F1000F91EA98
:100AB000030F58BF994208BF90422CBFD8176FEA66
:100AC000E37040F0010070474FEA410C7FEA6C5C34
:100AD00002D150EA013C07D14FEA430C7FEA6C5C3B
:100AE000D6D152EA033CD3D05DF8040B704700BF67
:100AF0008446104662468C461946634600E000BFB5
:100B000001B5FFF7B7FF002848BF10F1000F01BD86
:100B10004DF808EDFFF7F4FF0CBF012000205DF851
:100B200008FB00BF4DF808EDFFF7EAFF34BF0120D6
:100B300000205DF808FB00BF4DF808EDFFF7E0FF6F
:100B400094BF012000205DF808FB00BF4DF808EDC0
:100B5000FFF7CEFF94BF012000205DF808FB00BF27
:100B60004DF808EDFFF7C4FF34BF012000205DF809
:100B700008FB00BF4FEA410C7FEA6C5C02D150EAEF
:100B8000013C0AD14FEA430C7FEA6C5C02D152EA85
:100B9000033C02D14FF0000070474FF00100704756
:100BA0004FEA410212F5001215D211D56FF4787395
:100BB000B3EB625212D94FEAC12343F0004343EA38
:100BC000505311F0004F23FA02F018BF4042704713
:100BD0004FF00000704750EA013005D111F000409D
:100BE00008BF6FF0004070474FF00000704700BF33
:100BF0004A0011D212F5001211D20DD56FF478739C
:100C0000B3EB62520ED44FEAC12343F0004343EAF0
:100C1000505323FA02F070474FF00000704750EA3B
:100C2000013002D14FF0FF3070474FF000007047A5
:100C30004FEA4102B2F1E04324BFB3F5001CDCF1FE
:100C4000FE5C0DD901F0004C4FEAC0024CEA507036
:100C5000B2F1004F40EB830008BF20F00100704765
:100C600011F0804F21D113F13872BCBF01F0004068
:100C7000704741F480114FEA5252C2F11802C2F19A
:100C8000200C10FA0CF320FA02F018BF40F001001B
:100C90004FEAC1234FEAD32303FA0CFC40EA0C00CD
:100CA00023FA02F34FEA4303CCE77FEA625307D10A
:100CB00050EA01331EBF4FF0FE4040F44000704741
:100CC00001F0004040F0FE4040F40000704700BFDB
:100CD00080F0004002E000BF81F0004142001FBFF1
:100CE0005FEA410392EA030F7FEA226C7FEA236CFA
:100CF0006AD04FEA1262D2EB1363C1BFD2184140EF
:100D000048404140B8BF5B42192B88BF704710F084
:100D1000004F40F4000020F07F4018BF404211F027
:100D2000004F41F4000121F07F4118BF494292EA8F
:100D3000030F3FD0A2F1010241FA03FC10EB0C00BB
:100D4000C3F1200301FA03F100F0004302D5494248
:100D500060EB4000B0F5000F13D3B0F1807F06D3F5
:100D600040084FEA310102F10102FE2A51D2B1F1ED
:100D7000004F40EBC25008BF20F0010040EA0300E2
:100D80007047490040EB0000013A28BFB0F5000F62
:100D9000EDD2B0FA80FCACF1080CB2EB0C0200FA18
:100DA0000CF0AABF00EBC25052421843BCBFD04067
:100DB0001843704792F0000F81F4000106BF80F4E1
:100DC00000000132013BB5E74FEA41037FEA226CA4
:100DD00018BF7FEA236C21D092EA030F04D092F06F
:100DE000000F08BF0846704790EA010F1CBF0020A3
:100DF000704712F07F4F04D1400028BF40F0004000
:100E0000704712F100723CBF00F50000704700F01F
:100E1000004343F0FE4040F4000070477FEA226246
:100E200016BF08467FEA23630146420206BF5FEA17
:100E3000412390EA010F40F4800070474FF0000317
:100E400004E000BF10F0004348BF40425FEA000CDE
:100E500008BF704743F0964301464FF000001CE086
:100E600050EA010208BF70474FF000030AE000BFDC
:100E700050EA010208BF704711F0004302D540421A
:100E800061EB41015FEA010C02BF8446014600208C
:100E900043F0B64308BFA3F18053A3F50003BCFAA7
:100EA0008CF2083AA3EBC25310DB01FA02FC634454
:100EB00000FA02FCC2F12002BCF1004F20FA02F25B
:100EC00043EB020008BF20F00100704702F120024E
:100ED00001FA02FCC2F1200250EA4C0021FA02F2AF
:100EE00043EB020008BF20EADC70704742000ED2DC
:100EF000B2F1FE4F0BD34FF09E03B3EB126209D455
:100F00004FEA002343F0004323FA02F070474FF00A
:100F10000000704712F1610F01D1420202D14FF07F
:100F2000FF3070474FF00000704700BF0A4B07B515
:100F30005A690D2042F001025A6100225B69114694
:100F400003F001030193019B01F070FD0D2003B03C
:100F50005DF804EB01F09ABD0010024010222DE96B
:100F6000F04188B00DEB0200002104F0E6FD314BAA
:100F7000314C9A69314F42F020029A619A692046B9
:100F800002F020020192019A9A694FF2C01142F0D8
:100F900004029A619A69002602F004020292029AFF
:100FA0009A694FF0020842F008029A619B69012297
:100FB00003F008030393039B01F0B4FF00223846BB
:100FC0004FF4807101F0AEFF0423384604A9CDE947
:100FD0000436CDF8188001F0C7FE4FF4704211239B
:100FE000204604A9CDE904230125CDE9066801F0D6
:100FF000BBFE4FF48073384604A9CDE90435CDE932
:10100000066801F0B1FE402306960326204604A997
:10101000CDE90435079601F0A7FE4FF4C0732046D2
:1010200004A9CDE90435CDE9065601F09DFE08B0CE
:10103000BDE8F08100100240000C014000080140B2
:1010400008B50B480B4A0C4BC0E9002300234FF4B2
:101050008042C0E90233C0E90423C0E906330362D9
:1010600002F090F818B1BDE8084000F07FBC08BD60
:101070000402002000580040A086010010B504467C
:1010800086B01022002102A804F057FD2268154BFB
:101090009A4225D1144C4FF44062A369134843F09F
:1010A0000803A361A36902A903F008030093009B4E
:1010B0001223CDE902230323059301F055FE0022FC
:1010C000E369212043F48003E361E369114603F4FB
:1010D00080030193019B01F0A9FC212001F0D6FCC3
:1010E00006B010BD0058004000100240000C014046
:1010F0007FB505234FF0FF368DF80B3010230446E3
:10110000094D0146ADF80C300DF10B0201232846C4
:10111000009602F0DFF8022321462846009603AA33
:1011200002F0D8F804B070BD0402002000000000F6
:10113000F0B54FF0FF3704460226134D85B0014647
:101140000DF10B020123284600978DF80B6002F089
:10115000C1F8334603AA21462846009702F094F9C5
:10116000BDF80C00C0BAC010FFF700FA04A3D3E921
:101170000023FFF765FAFFF75BFD05B0F0BD00BF88
:10118000FCA9F1D24D62703F040200200000000073
:101190007FB54FF0FF3604460123114D01460DF196
:1011A0000B02284600968DF80B3002F093F803AA44
:1011B000022321462846009602F066F9BDF80C008D
:1011C000C0BAFFF7D3F904A3D3E90023FFF738FA35
:1011D000FFF72EFD04B070BD2D431CEBE2361A3F25
:1011E0000402002038B50546FFF7D2FF0446284622
:1011F000FFF79EFF01462046FEF7B2FF38BD08B557
:101200008620FFF775FF8420FFF772FF8220FFF72B
:101210006FFFBDE808408020FFF76ABF10B590B0AF
:101220001022002109A804F088FC1422002101A842
:1012300004F083FC02244FF4803301224FF4003188
:10124000CDE90623CDE90D434FF4E01306A808913C
:101250000A920F9303F086F808B172B6FEE70F23E7
:10126000CDE901344FF480630390CDE90430214689
:1012700001A803F03FFA08B172B6FEE710B010BD46
:10128000002208B5034B1A8001F002FABDE80840BD
:1012900000F0B4BABA0200202DE9F04F4FF47846BE
:1012A00085B0054682231E228C21C0EB00140096D7
:1012B0000A2000F0A9FD82230096D2228C21E6208C
:1012C00000F0A2FD3C234FF0000A5D43A400A4B24D
:1012D000DFF824B12E1B002C7ED03C23B4FBF3F2AC
:1012E00003FB124345499BB292B2454804F0C2FB4E
:1012F00040F2FF720021CDE90121424B64215A687E
:10130000502000921B683E4A00F0FEFE3046FFF778
:1013100099FDFFF73DF952465B46FFF791F980468C
:1013200028468946FFF722F902460B4640464946C1
:10133000FFF7B0FA2CA3D3E90023FEF7CBFF2CA3D1
:10134000D3E90023FFF77CF952465B46FFF7A2FA88
:10135000FFF76EFCFFF71CF98046894606F0BEFCDD
:101360000022294BFFF76CF9FFF71AFC494600F100
:101370007807404606F0F8FC0022234BFFF760F99F
:10138000FFF70EFC00F178083FB20FFA88F84FF42F
:10139000784305224146384600F0BAFF0A2C04D8AB
:1013A0004FF47041194801F0C2FD4FF4757001F01F
:1013B00019FB002305224146384600F0A9FF04210D
:1013C000134801F0A9FD013C0128A4B206F1010671
:1013D00081D1642001F006FB05B0BDE8F04FFFF7B6
:1013E0004FBF00BFAFF300800000000000C06640A8
:1013F000182D4454FB21094000806640DEAD0008F2
:10140000980200200000002000005940000C01401C
:10141000000801402DE9FF470123DFF8BC802F4D74
:10142000002088F800302B8000F0EEFB2C4EDFF817
:10143000B490DFF8B4A040F2FF770024CDE9017446
:1014400073684B21009333683220284A00F05CFE19
:10145000B5F900202649484604F00CFBCDE901749B
:10146000244B64215A68502000921B684A4600F0C1
:101470004BFEC82001F0B6FA0421504601F04CFDA5
:101480000128D8D1C82001F0ADFA204600F0BCFBFD
:10149000B5F900201849134804F0ECFACDE90174BD
:1014A0007368AA210093336832200E4A00F02CFEA4
:1014B0004CF67963C322BE2100932D20A52300F0B2
:1014C000FDFC2878FFF7E8FE88F8004004B0BDE88E
:1014D000F047FFF7D5BE00BFB4020020BA020020DB
:1014E000080000208802002000080140E8AD000844
:1014F000F4AD000800000020EEAD0008012300203C
:101500002DE9F04FA64A89B01370A64BDFF89892E8
:10151000188000F079FBA34BA44FB3F90030A44E20
:101520005C1CA44DE4B2032B1DD8DFE813F00400CB
:10153000F7000D01230101224FF400419E4801F004
:10154000F1FC00224FF4E0419B4801F0EBFC8620C7
:10155000FFF7EEFD38608620FFF71AFE3060862028
:10156000FFF740FE28602246944905A804F082FA5D
:10157000002440F2FF72CDE90124914B14215A68F6
:10158000462000921B6805AA00F0BEFD3868FEF7F1
:10159000FFFF4FF6FF7BDFF82C8202460B468A489E
:1015A0008A4904F067FA0294CDF804B0D8F8043000
:1015B000854A0093D8F800303C21142000F0A4FDA7
:1015C00083493868FEF7CCFDFFF790FC4FF4784A6A
:1015D000552382B219461420CDF800A000F014FC67
:1015E00038687B49FEF7BCFD7A49FFF777FBFFF7C8
:1015F0007DFC5523C822194680B2009400F004FCFB
:10160000306820F00040FEF7C3FF02460B467248E8
:10161000724904F02FFACDE901B4D8F804306E4ACB
:101620000093D8F800306921142000F06DFD306877
:101630006B49FEF795FD4946FFF750FBFFF756FC57
:10164000822382B219461420CDF800A000F0DCFB02
:1016500030686349FEF784FD4946FFF73FFBFFF71B
:1016600045FC8223C822194680B2009400F0CCFBCE
:10167000286820F00040FEF78BFF02460B465948D1
:10168000594904F0F7F9CDE901B4D8F80430554AC6
:101690000093D8F800309621142000F035FD28681A
:1016A00020F00040FEF774FF0022504BFEF7C8FF09
:1016B00000224F4BFEF70EFEFFF79AFAAF2382B2DD
:1016C00019461420CDF800A000F09EFB2868494977
:1016D000FEF746FD4946FFF701FBFFF707FCAF2386
:1016E000C822194680B2009400F08EFB04214248C3
:1016F00001F012FC012805467FF40DAFC82001F06F
:1017000071F9274B2A464FF470412B481C7001F0A9
:1017100009FCFFF7B5FD09B0BDE8F08F01224FF4D9
:101720008041254801F0FEFB00224FF43041224861
:1017300001F0F8FB8420FFF7FBFC38608420FFF702
:1017400027FD306084200BE701224FF400511A4836
:1017500001F0E8FB00224FF45041174801F0E2FB92
:101760008220FFF7E5FC38608220FFF711FD306032
:101770008220F5E601224FF480510F4801F0D2FBA0
:1017800000224FF460410C4801F0CCFB8020FFF7B1
:10179000CFFC38608020FFF7FBFC30608020DFE664
:1017A000B5020020BA0200200000B041B0020020C3
:1017B000AC020020A8020020000C0140FCAD000893
:1017C00000000020080000207802002003AE00087E
:1017D000000010420000A0416802002014AE000882
:1017E000000048435802002025AE000800804C400D
:1017F0000000364000006442000801402DE9FF4728
:1018000001232A4E2A4F337000232A4CDFF8A8A068
:10181000DFF8A8903B80B7F900506DBB40F2FF782D
:101820000295CDF804806368254A009323681E2141
:101830005F2000F069FC434630228121402000F007
:1018400079FB2B4630228121AE2000F073FB04216E
:10185000484601F061FB0128DDD1C82001F0C2F843
:10186000002000F0D1F9B7F9003093B9337004B01B
:10187000BDE8F047FFF742BE012DE8D140F2FF7509
:101880004FF00008CDE90158636852460093236881
:10189000CDE7012B06D10023337004B0BDE8F0473B
:1018A000FFF7B8BD04B0BDE8F08700BFB602002066
:1018B000BA020020080000203CAE000800080140E9
:1018C00036AE000808B501F069F8FFF7A7FCFFF78E
:1018D00045FBFFF72BFB00F04BF800F0B1FFFFF7E3
:1018E000AFFB00F0BDF9FFF78AFC3C21074803F08D
:1018F000D9F9002040F2FF72282100F0A7FDFFF780
:10190000BFFC642001F06EF8FEE700BFBC0C0020B5
:101910000368124A5B6A9BB21380114A9B081278D3
:10192000012A04D103F003030E4A138070470E4AC4
:101930009BB21278012A08D13C22B3FBF2F102FBE0
:1019400011339BB243B11BB2EEE71BB1013303F07D
:101950000103E9E70123E7E71346E5E7B8020020C2
:10196000B5020020BA020020B402002072B6FEE7E1
:1019700008B54FF482730D480D4A4FF40071C0E969
:10198000002300230822C0E90233C0E90433C0E980
:10199000083383620A23C0E90612C36202F0CEFF55
:1019A00018B1BDE80840FFF7E1BF08BD0003002003
:1019B0000030014070B51026054686B03246002141
:1019C00002A804F0BAF82A681E4B9A4238D103F5EF
:1019D00060439A691C4842F480529A619A6902A94C
:1019E00002F480520092009A9A69184C42F0080260
:1019F0009A619B69282203F008030193019B02234B
:101A0000CDE902230323059301F0AEF9104A2046E5
:101A1000536843F0E06343F0010353600D4B8022B1
:101A2000C4E900360023C4E90232C4E90433C4E93E
:101A3000063301F04DF808B1FFF798FFAC6465621A
:101A400006B070BD00300140000C0140BC02002017
:101A5000000001403000024013B50F4C8DF8070024
:101A6000002220464FF4807101F05CFA20460022EB
:101A7000402101F057FA4FF0FF330DF10701012229
:101A8000064802F0B3FF01224FF48071204601F0B6
:101A900049FA02B010BD00BF000C01400003002055
:101AA00013B50F4C8DF80700002220464FF48071CB
:101AB00001F038FA20460122402101F033FA4FF0BC
:101AC000FF330DF107010122064802F08FFF0122CA
:101AD0004FF48071204601F025FA02B010BD00BF1E
:101AE000000C0140000300202DE9F84300220546C8
:101AF0000C461A484FF4807101F014FA012240217B
:101B0000164801F00FFA4FF6FF78DFF85490154FA2
:101B10003CB9BDE8F84301224FF480710F4801F051
:101B200001BA4445264628BF4646B9F80030B2B24D
:101B3000A3420BD829460B4803F008F8BA6C92F878
:101B40002130012BFBD13544A41BE1E74FF0FF33DB
:101B50002946384602F04AFFF5E700BF000C014075
:101B600010000020000300202DE9F341DFF864801D
:101B700007460D4640464FF48071164600221C462B
:101B800001F0D0F92A20FFF767FF04217FBA0DEB9F
:101B9000010076BAADF80470ADF80660FFF7A4FF57
:101BA0002B20FFF759FF04216DBA0DEB010064BA39
:101BB000ADF80450ADF80640FFF796FF2C20FFF774
:101BC0004BFF01224FF48071404602B0BDE8F04166
:101BD00001F0A8B9000C014010B504463620FFF70B
:101BE0003BFF032C0ED8DFE804F00207090BC020EE
:101BF000BDE81040FFF754BFA020F9E70020F7E749
:101C00006020F5E710BD0000002170B5DB23EF2256
:101C100005460846FFF7A8FF00224FF480710E48E2
:101C200001F080F92C240D4E4FF4166229463046FF
:101C3000013C03F082FFA4B24FF416613046FFF777
:101C400053FF002CF0D10122BDE870404FF48071A9
:101C5000014801F067B900BF000C014058030020A3
:101C600030B54FF4166285B00021514803F065FF8E
:101C70000A2000F0B7FE002280214E4801F052F900
:101C80000A2000F0AFFE012280214A4801F04AF903
:101C9000142000F0A7FE3A20FFF7DEFE5520FFF7E4
:101CA000FFFEB220FFF7D8FE434B052118681B79D1
:101CB000009068468DF80430FFF716FF0220FFF70A
:101CC0008BFFB720FFF7C8FE3520FFF7E9FEBB20EA
:101CD000FFF7C2FE1920FFF7E3FEC020FFF7BCFEAE
:101CE0002C20FFF7DDFEC220FFF7B6FE0120FFF734
:101CF000D7FEC320FFF7B0FE1220FFF7D1FEC420AD
:101D0000FFF7AAFE2020FFF7CBFEC620FFF7A4FEB8
:101D10000F20FFF7C5FED020FFF79EFEA420FFF79F
:101D2000BFFEA120FFF7BCFEE020FFF795FE6A464C
:101D3000224B03F10805144618685968083303C498
:101D4000AB422246F7D118689B880E21A380206001
:101D50006846FFF7C9FEE120FFF77EFE6A46184B92
:101D600003F10805144618685968083303C4AB42E8
:101D70002246F7D118689B880E21A3802060684610
:101D8000FFF7B2FE2120FFF767FE1120FFF764FE88
:101D90001320FFF761FE2920FFF75EFE322000F0DE
:101DA00021FE002005B0BDE83040FFF72DBF00BF89
:101DB00058030020000C0140308D000842AE00089E
:101DC00051AE0008EF2837B50B46144617D8DB296B
:101DD00015D80246FFF7C8FE64BA00224FF480719E
:101DE0000848ADF8044001F09DF8022101A8FFF772
:101DF0007BFE01224FF48071024801F093F803B09A
:101E000030BD00BF000C01402DE9F74FA3EB0108E6
:101E1000A2EB0009B8F1000FB8BFC8F10008B9F192
:101E2000000FB8BFC9F10009C84504460D46174662
:101E30001E46BDF830B003DD1F4616460C4605466B
:101E4000BC4205D92B4635461E4623463C461F4616
:101E5000A6EB050AB54234BF01264FF0FF363B1B07
:101E60009AB200928AEAEA72A2EBEA7201921AB27C
:101E7000C3F3C03313444FEA630ABC4202D903B030
:101E8000BDE8F08FC8455A46C7BF214628462946B7
:101E90002046FFF797FF019BAAEB03030FFA83FA93
:101EA000BAF1000F9AB205DA009B35441344ADB283
:101EB0000FFA83FA0134A4B2DFE700002DE9F743FB
:101EC00006460C4617461D46DFF86490BDF828808C
:101ED000484600224FF4807101F024F823463A4628
:101EE00021463046CDF80080FFF78EFF2B46324664
:101EF00021463046CDF80080FFF786FF2B463A4654
:101F000029463046CDF80080FFF77EFF3A4621464D
:101F100038462B46CDF80080FFF776FF01224FF4BC
:101F20008071484603B0BDE8F04300F0FBBF00BF3E
:101F3000000C01402DE9F04F0E46174605461C46A1
:101F4000C2EBC2335B0085B01BB24FF480714648D0
:101F5000C2F101080FFA82FA0022019300F0E2FFB9
:101F6000B9192246284689B2FFF72CFFF11B2246F9
:101F7000284689B2FFF726FF78192246314680B2FB
:101F8000FFF720FFE81B2246314680B2FFF71AFF19
:101F900000230093009B534508DB01224FF480711E
:101FA000314805B0BDE8F04F00F0BCBFB8F1000FFC
:101FB0000ADB019B0AF1FF3A02331AB243440FFADB
:101FC0008AFA01920FFA83F8009B1FFA8AF901330B
:101FD0009FB21BB20093EB199BB209EB0601A5EB74
:101FE000070B1846224689B21FFA8BFB0393029116
:101FF000FFF7E8FE224658460299FFF7E3FE039BEF
:10200000A6EB09011846224689B20291FFF7DAFED3
:1020100022465846029909EB050BFFF7D3FE1FFA3B
:102020008BFBF119A5EB09092246584689B21FFA24
:1020300089F908EB4708F71B0291BFB2FFF7C2FE10
:10204000224648460299FFF7BDFE224639465846C9
:10205000FFF7B8FE08F101082246394648460FFA54
:1020600088F8FFF7AFFE95E7000C014082B02DE93C
:10207000F74F81468A461446DEB2C3F30725002295
:102080004FF480711F48BDF840700D93BDF83C803F
:1020900000F048FF6B1E721E53444A4451464846A6
:1020A0009BB292B2FFF760FD4FF00009203C6C43F9
:1020B00097FA97FA6400A94509D301224FF4807179
:1020C000104803B0BDE8F04F02B000F02BBF00276E
:1020D0000E9B33F804B0BE4203D809F10109023463
:1020E000E9E70BFA07F31B0409D598FA98F3ADF862
:1020F0000430022101A8FFF7F7FC0137EBE7ADF848
:1021000004A0F6E7000C014082B02DE9FF47044629
:102110000D4616464FF4807100221B48BDF83C90D6
:10212000BDF840A00D935FFA83F8C3F3072700F0D2
:10213000F9FE16F8012B4AB901224FF480711248BA
:1021400004B0BDE8F04702B000F0ECBE04EB0803B9
:10215000EF2B08DD3D44ADB2EB19DB2BECDC202A84
:102160004FF00004E5D00E9B8DF834808DF835706B
:10217000204600932946CDE9019A0D9B4444FFF780
:1021800075FFA4B2D5E700BF000C01402DE9F7436D
:1021900006460F4614464FF4807100221C481D4627
:1021A000BDF8289000F0BEFEEF2E2DD8DB2F2BD8E7
:1021B0004FF000083319EF2BC8BFC6F1F00407EB4E
:1021C0000503C8BFA4B2DB2BC8BFC7F1DC0534448C
:1021D000C8BFADB2A4B207EB08039BB219462246B2
:1021E0003046CDF8009008F10108FFF70DFE1FFA08
:1021F00088F39D42EFD201224FF48071044803B06E
:10220000BDE8F04300F08EBE03B0BDE8F08300BF30
:10221000000C01402DE9F04F834617460D469846C5
:102220008BB0BDF85030A7EB0B040593BDF85430CC
:1022300000220693BDF858304FF480713348A8EB64
:102240000506079300F06EFE002CB8BF6442002E16
:10225000B8BF764224B236B25F4534BF4FF0FF3785
:102260000127A84534BF4FF0FF384FF00108B442B2
:102270000FFA8BF90FFA85FA14DB0397002704EBAA
:10228000D4756D1004974FF0000B0FFA8BF39C423E
:1022900016DA01224FF480711C480BB0BDE8F04FF4
:1022A00000F040BE2346CDF810804FF0000806EB4A
:1022B000D675344645F34F051E46CDF80C80E2E74F
:1022C000079B1FFA89F01FFA8AF100933544DDE974
:1022D0000523CDE90801FFF797FDABB22DB2AC4263
:1022E00009DC089809991B1B384441441DB20FFAB8
:1022F00080F90FFA81FA039B0BF1010B9944049BBF
:102300000FFA89F99A440FFA8AFABEE7000C0140E5
:102310002DE9F04F90460C4605461F4687B01FFA40
:1023200088F900224FF48071474800F0FBFDA4B209
:10233000C9EBC933ADB209EB04015B001BB23A46ED
:10234000284689B2049309EB050AFFF73BFDA4EB8D
:1023500009013A462846C9F1010689B21FFA8AFAEC
:10236000A5EB0909FFF72EFD1FFA89F93A46214628
:102370005046FFF727FD3A4621464846FFF722FD23
:1023800023465246214648460097FFF73DFD00236D
:1023900036B20393039B434508DB01224FF480715F
:1023A000294807B0BDE8F04F00F0BCBD002E09DBA6
:1023B000049B08F1FF3802331AB233440FFA88F84D
:1023C00004921EB2039B1FFA88F901331FFA83FAA5
:1023D0001BB2039305EB0A0B04EB09039BB21FFA34
:1023E0008BFBA5EB0A005A46194680B20097059070
:1023F000FFF70AFD0598A4EB09039BB202461946B4
:1024000058460097FFF700FD05EB090B04EB0A03A4
:10241000A5EB09091FFA8BFB9BB21FFA89F94A4603
:10242000194658460097FFF7EFFCA4EB0A0306EBAA
:102430004A069BB24A46194658460136009736B2BC
:10244000FFF7E2FCA6E700BF000C01402DE9F04FCA
:102450004FF0000A144685B0DFF810920292CDF8D2
:1024600004A086B28DB2D9F8043006F12A0705F12E
:1024700032081FFA88F8BFB200934146D9F80030FD
:1024800038467B4AFFF740FE05F14B0306F1C602D2
:10249000414638469BB292B20094FFF70FFDCDE95A
:1024A00001A4D9F8043006F1960000934146D9F80A
:1024B0000030704A80B2FFF727FE06F18E0906F160
:1024C000610005F13E011FFA81F81FFA89F91FFA30
:1024D00080FA2346032209B200B2FFF719FF4346F0
:1024E0004A4641465046009406F1920AFFF78CFC9A
:1024F0001FFA8AFA05F1400143465246484689B21E
:102500000094FFF781FC05F13C01434652464846E2
:1025100089B20094FFF778FC05F13D01434652462D
:10252000484689B20094FFF76FFC05F13F0143462E
:102530005246484689B206F1730A05F134090094FF
:10254000FFF762FC1FFA89F91FFA8AFA06F169009F
:1025500006F1780B4B46524641461FFA8BFB80B280
:102560000094FFF751FC4B465A46494650460094AA
:10257000FFF74AFC0FFA89F10FFA8BF006F17D099B
:1025800005F1480B1FFA89F91FFA8BFB234602223B
:10259000FFF7BEFE4A46414650465B460094FFF7B1
:1025A00033FC06F1870248465B46594692B20094D6
:1025B000FFF72AFC042305F1460106F186001A46BE
:1025C000009489B280B2FFF7E1FD4FF008084FF0A8
:1025D00000095035284EDFF8A4A0ADB2B9F1020FC2
:1025E0004FF4807150462DD0B9F1030F34D0B9F1BA
:1025F000010F1DD000F09BFC0023CDE9014373685F
:102600001F4A0093336829463846FFF77DFD4FF493
:10261000FA7000F0E7F909F10109B8F1010809F0D1
:102620000309DBD1404605B0BDE8F04FFFF7ECBA37
:1026300000F07DFC0023CDE901437368114A00934B
:102640003368E0E700F073FC0023CDE901437368D1
:102650000D4A00933368D6E700F069FC0023CDE90A
:1026600001437368094A00933368CCE700000020F7
:1026700060AE000864AE00080800002000080140B9
:1026800068AE000874AE000880AE00088CAE00088A
:102690007FB50020FFF7B8FA42F61B5330228121A4
:1026A0004020FFF735FE4CF679645F234025CDE9E5
:1026B000013485232A46194600952C20FFF7AAFDF0
:1026C000A323CDE900537D232A46194658200294BE
:1026D000FFF7A0FD42F61B5330228121AE20FFF709
:1026E00017FEAE2581269723C12219469B20CDE9EE
:1026F00000560294FFF78EFD6B23C12219469B20E2
:10270000CDE901640095FFF785FD04B070BD0000C0
:102710000E4B82B09A6942F001029A619A6902F006
:1027200001020092009ADA6942F08052DA61DB69B4
:10273000074A03F080530193019B536823F0E06341
:1027400043F00073536002B0704700BF00100240B6
:1027500000000140FEE7FEE7FEE7FEE7FEE7704708
:102760007047704700F02CB9014800F065BA00BF0F
:10277000BC020020014802F006BB00BFBC0C0020D8
:10278000014801F097B900BF040200200120704702
:1027900008B503F025FA162303604FF0FF3008BD9B
:1027A00008B503F01DFA16230360FEE770B50D4669
:1027B00014460E46731B9C4201DC204670BDAFF3ED
:1027C000008006F8010BF5E770B50D4614460E467D
:1027D000731B9C4201DC204670BD16F8010BAFF361
:1027E0000080F5E74FF0FF3070474FF400530020B2
:1027F0004B60704701207047002070470B4A03462A
:10280000116810B509B90A491160106809490A4CE4
:102810000344091B8B4206D903F0E2F90C23036041
:102820004FF0FF3010BD1360FCE700BFB80C002074
:10283000580E0020005000200004000070470000E7
:10284000182210B58CB000210DEB020003F075F9D1
:1028500000244FF0804311480222C0E900344FF6B3
:10286000FF73C0E90334012303A9CDE90144CDE995
:102870000332CDE9082384608461059302F058FB9C
:1028800008B1FFF773F8054801A9CDE9014402F04A
:10289000A3FB08B1FFF76AF80CB010BDBC0C002018
:1028A00010B5044686B01022002102A803F045F9B5
:1028B0002368B3F1804F23D103F50433DA6911485B
:1028C00042F00102DA61DA6902A902F00102009223
:1028D000009A9A6942F004029A619B6903F004032A
:1028E0000193019B032302930223049300F03CFA1B
:1028F00000221C20114600F099F81C2000F0C6F8B8
:1029000006B010BD00080140FFF798FF0B480C49C6
:102910000C4A002302E0D458C4500433C4188C423B
:10292000F9D3094A094C002301E013600432A242A2
:10293000FBD303F05BF9FEF7C5FF704700000020F2
:10294000E801002018B40008E8010020540E00201F
:10295000FEE7000038B50E4B05461A784FF47A733F
:10296000B3FBF2F30B4A1068B0FBF3F000F09CF8F5
:10297000044658B90F2D09D8024629464FF0FF30BA
:1029800000F054F82046044B1D6038BD0120FCE7E0
:1029900018000020140000201C000020074A08B581
:1029A0001368032043F01003136000F02DF80F208C
:1029B000FFF7D0FFFFF7ACFE002008BD002002406B
:1029C000034A044B11681B780B441360704700BF27
:1029D000040D002018000020014B1868704700BF4C
:1029E000040D002038B50446FFF7F6FF0546631CCA
:1029F0001EBF044B1B78E418FFF7EEFF431BA342F6
:102A0000FAD338BD1800002007490302CA6803F44E
:102A1000E06322F4E0621204120C134343F0BF633C
:102A200043F40033CB60704700ED00E0154B30B548
:102A3000DC68C4F30224C4F10703251D042B28BF5E
:102A40000423062D4FF0FF3594BF0024033C05FA04
:102A500003F321EA0303A54022EA0502A34000286C
:102A600043EA0203ACBF00F16040074A4FEA031398
:102A7000DBB2ABBF00F5614000F00F0080F800331F
:102A8000135430BD00ED00E014ED00E0002807DB3A
:102A900001234109034A00F01F00834042F821301E
:102AA000704700BF00E100E00138B0F1807F0BD239
:102AB0004FF0E023F021054A586182F823100020EE
:102AC000072298611A6170470120704700ED00E00D
:102AD000034610B540B314210068144A0244B2FB07
:102AE000F1F292001A64124ADA63022283F821207A
:102AF000D3E901242243DC68016822431C6921F4E4
:102B00007F5122435C6921F0300122439C692243BA
:102B1000DC6922430A43026000200122986383F8A3
:102B2000200083F8212010BD0120FCE7F8FFFDBF45
:102B300000000240F0B590F82040012C34D0012470
:102B400080F8204090F82140012CE5B24FF00004BD
:102B500028D1022680F8216084630468266826F064
:102B600001062660D0E90F67BD4075606360436869
:102B7000102BC36A0BBFA260A160E160E2604BB1A1
:102B8000236843F00E0300202360236843F0010311
:102B90002360F0BD236823F004032360236843F01F
:102BA0000A03F0E780F820400220F2E708B590F829
:102BB0002130022B03D004238363012008BD036866
:102BC0001A6822F00E021A601A6822F001021A60D6
:102BD000174A93421FD0143293421ED014329342AC
:102BE0001DD0143293421DD0143293421DD01432A2
:102BF000934214BF4FF080734FF480130D4A53601B
:102C0000012380F82130002380F82030436B03B18A
:102C100098470020D2E70123F0E71023EEE74FF4B6
:102C20008073EBE74FF48053E8E74FF48033E5E738
:102C3000080002400000024070B40425C66B026C1C
:102C40003468036895402542196832D04D0730D565
:102C50001A6896065EBF1A6822F004021A603E4A9D
:102C6000934219D01432934218D01432934217D0A1
:102C70001432934217D01432934217D01432934235
:102C800014BF4FF080634FF48003344A5360C36A2B
:102C9000002B5ED070BC18470423F6E74023F4E70E
:102CA0004FF48063F1E74FF48043EEE74FF4802365
:102CB000EBE702259540254235D08D0733D51A68BC
:102CC000940606D41A6822F00A021A60012280F8DB
:102CD0002120214A934219D01432934218D0143241
:102CE000934217D01432934217D01432934217D024
:102CF0001432934214BF4FF000734FF40013174A7D
:102D00005360002380F82030836AC1E70223F6E78E
:102D10002023F4E74FF40073F1E74FF40053EEE79C
:102D20004FF40033EBE708259540254211D0090701
:102D30000FD5196821F00E011960012303FA02F280
:102D40007260836380F82130002380F82030036BA9
:102D50009EE770BC704700BF0800024000000240C0
:102D600090F82100704700002DE9F74F0024264617
:102D7000DFF888C1624BDFF88CE1DFF88C810A68EC
:102D800032FA06F502D103B0BDE8F08F0127B74053
:102D900002EA070537EA02027AD14A68032A07D80D
:102DA000013A022A00F28380DFE802F092979D0048
:102DB000122A00F095806DD8112A00F08B80FF2D2B
:102DC00098BF81464FF00F0B88BF00F104094FEA0E
:102DD0008602D9F8007088BF203A0BFA02FA27EA77
:102DE0000A0704FA02F21743C9F80070D1F80490F8
:102DF00019F0805F4CD0DCF8182026F0030742F071
:102E00000102CCF81820DCF8182007F1804702F006
:102E10000102019207F5803706F0030A019A4FEA92
:102E20008A0ABA680BFA0AFB22EA0B0B374A90426D
:102E30005DD002F5806290425BD002F580629042E4
:102E400059D002F58062904214BF0422032202FA94
:102E50000AF242EA0B02BA609A6819F4801F14BFA2
:102E60002A43AA439A60DA6819F4001F14BF2A4360
:102E7000AA43DA605A6819F4003F14BF2A43AA43F0
:102E80005A601A6819F4803F14BF2A43AA431A6093
:102E9000013674E7DFF878904A4508D010D8A9F5D4
:102EA00080194A4503D0724501D0424587D18A68CE
:102EB000DAB1012A4FF008040CBF076147617EE7D1
:102EC000DFF850904A45F2D009F580394A45EDE7E0
:102ED000CC6874E7CC68043471E7CC6808346EE7DA
:102EE000CC680C346BE7002469E7042467E7002210
:102EF000ADE70122ABE70222A9E700BF00100240C4
:102F000000040140000021100000111000080140E1
:102F100000002210000031108368194214BF012004
:102F2000002070470AB1016170470904FBE7C368DC
:102F300001EA030221EA030141EA0241016170470B
:102F4000016800224B6913F4806310D06FF4806332
:102F50004B612023026380F83D3080F83E20036CF3
:102F600080F83C2043F004030364012070471846B6
:102F700070472DE9F84606460F4691461D464FEA32
:102F8000114A3368BAF1010F0CBF5C699C6927EAEA
:102F90000404A4B2B4FA84F46409A14501D0002069
:102FA00025E06A1CEED0FFF717FD089BC01AA84267
:102FB00001D8002DE5D13368BAF1010F0CBF5B6970
:102FC0009B6927EA03039BB2B3FA83F35B09994534
:102FD000D7D1002320220120336386F83D2086F8D4
:102FE0003E30326C86F83C3042F020023264BDE85C
:102FF000F8862DE9F04104460F46164698462568A6
:10300000686927EA000080B2C0B16B695A0517D51C
:103010002B68202243F400732B606FF480636B6194
:103020000023236384F83D2084F83E30236C43F072
:10303000040323640023012084F83C30BDE8F081C0
:10304000731CDDD0FFF7C8FCA0EB0800B04201D82C
:10305000002ED4D123685A6927EA020292B2002ACC
:10306000CDD000232022236384F83D2084F83E3015
:10307000236C1343DDE770B504460D4616462368FE
:103080005B691B0601D500201EE02046FFF758FFB4
:10309000C8B96A1CF3D0FFF79FFC801BA84201D877
:1030A000002DECD123685B6913F08003E7D1202267
:1030B000236384F83D2084F83E30226C84F83C3051
:1030C00042F020022264012070BD70B504460D4616
:1030D000164623685B695B0701D500201EE0204689
:1030E000FFF72EFFC8B96A1CF3D0FFF775FC801BF1
:1030F000A84201D8002DECD123685B6913F00403CA
:10310000E7D12022236384F83D2084F83E30226CEE
:1031100084F83C3042F020022264012070BD70B57A
:1031200004460D46164621684B6913F0400301D052
:10313000002011E04A69D2060FD56FF010024A61F3
:103140002022236384F83D2084F83E30236C2364DE
:103150000023012084F83C3070BDFFF73DFC801B4C
:10316000A84201D8002DDED123685B6913F040032B
:10317000D9D12022236384F83D2084F83E30236C8B
:103180001343E4E770B5044608B9012070BD90F818
:103190003D3003F0FF021BB980F83C20FDF76EFFC5
:1031A000242384F83D3023681A6822F001021A6053
:1031B0001A6842F400421A601A6822F400421A6047
:1031C00001F034FB3F4B65689D4294BF3E4B3F4B43
:1031D00098428CBF00230123002BD6D1394E3C4BA3
:1031E000B542B0FBF3F388BF4FF49676226851687E
:1031F00021F03F0141EA030182BF73434FF47A7625
:10320000B3FBF6F35160116A013321F03F010B4328
:103210001362D169431E2B4821F44F41854221F0AE
:10322000FF0132D86D00B3FBF5F340F6FC700133BB
:10323000034242D0C3F30B031943D1611168D4E9AF
:10324000073021F0C00103430B4313609168D4E9B8
:10325000030321F40341034321F0FF010B43936077
:10326000D168D4E9053021F0FF0103430B43D3605B
:103270001368002043F0010313602023206484F8C6
:103280003D30206384F83E0080E7A06850B905EB2C
:103290004505B3FBF5F30133C3F30B037BB143F4F3
:1032A0000043C9E719206843B3FBF0F30133C3F3CC
:1032B0000B0323B143F44043BEE70423BCE70123DF
:1032C000BAE700BFA08601007F841E00FF083D0012
:1032D00040420F002DE9F043044685B098460D4664
:1032E00091460C9FFFF778FB94F83D300646202B63
:1032F00004D00225284605B0BDE8F08300901923CC
:10330000012220465C49FFF734FE0028F1D194F8F1
:103310003C30012BEDD00123216884F83C300B6850
:10332000DA075EBF0B6843F001030B600B6823F400
:1033300000630B60212384F83D30102384F83E3075
:1033400000232364A4F82A80638DC4F82490238585
:103350004A4BE362E36A082B04D0012B02D013F539
:10336000803F04D10B6843F480730B6002E0236B51
:10337000122BF7D000223B464FF001112046009659
:10338000FFF7F7FD226840B11368DB0501D4012582
:10339000B0E74FF400732364F9E72369B3F5804F76
:1033A00021D105F0FE05156133463A4620463449E1
:1033B000FFF71FFE05460028E9D1236803905A69EC
:1033C00003929B690393039B238DF3B921680A68D9
:1033D00042F400720A60202284F83C3084F83D20D8
:1033E00084F83E3086E7EB1103F0060343F0F00368
:1033F0001361204633463A462249FFF7FAFD00287A
:10340000C5D12368EDB21D61CEE73246394620466C
:10341000FFF731FE40B1236C042BB8D1226813684A
:1034200043F400731360B2E7636A20681A4612F827
:10343000011B01616262628D013A92B26285228D46
:10344000D0F814C0511E89B21CF0040F21850AD097
:1034500049B15978023301616362638D023A013BDD
:103460009BB263852285324639462046FFF72DFE02
:103470000028A9D0CFE700BF020010000000FFFF26
:1034800002000100080001002DE9F04398460023E6
:10349000044689B002930E469146109FFFF79CFAAE
:1034A00094F83D300546202B04D00226304609B062
:1034B000BDE8F08300901923012220468F49FFF7D1
:1034C00058FD0028F1D194F83C30012BEDD00123B8
:1034D000216884F83C300B68DB075EBF0B6843F063
:1034E00001030B600B6823F400630B60222384F854
:1034F0003D30102384F83E3000232364A4F82A8052
:10350000638DC4F8249023857D4BE362E36A0A68E7
:10351000082B42F480620A6004D0012B02D013F51C
:10352000803F04D10B6843F480730B6002E0236B8F
:10353000112BF7D03B4600224FF001112046009599
:10354000FFF717FD236838B11B68D80544BF4FF457
:10355000007323640126A9E72269B2F5804F29D1BF
:1035600046F00106F6B21E612B463A4620466549F2
:10357000FFF73FFD06460028ECD1228D2368002A84
:103580004DD103905A6903929A690392039A1A687B
:1035900042F400721A60DFF87081DFF87091238DB9
:1035A000002B6CD1202284F83C3084F83D2084F834
:1035B0003E307BE74FEAE61808F0060848F0F002D4
:1035C0001A6120462B463A465149FFF712FD002862
:1035D000C0D12368F6B23A461E6120462B464949BF
:1035E000FFF707FD02460028B4D123680790596908
:1035F00020460791996907910799196841F48071EC
:1036000019603B464FF001110095FFF7B2FC2268AC
:1036100008B1136899E748F0F1031361A4E7012AA0
:1036200011D11A6822F480621A6072B6236804907D
:103630005A6904929A690492049A1A6842F40072D0
:103640001A6062B6A7E7022A1A680ED142F4006235
:103650001A6072B6236805905A6905929A690592B4
:10366000059A1A6822F48062EAE742F480621A60DE
:1036700006905A6906929B690693069B8BE7032B7B
:1036800000F28880012B16D12A4639462046FFF7E2
:1036900046FD00287FF45EAF23681A69636A1A70DA
:1036A000636A01336362238D013B2385638D013B94
:1036B0009BB2638573E7022B4FF000023B46414605
:1036C0002046009526D1FFF754FC00287FF442AF36
:1036D00072B623681A6842F400721A601A69636A43
:1036E0001A70636A01336362238D013B2385638D06
:1036F000013B9BB2638562B6CEE700BF02001000BB
:103700000000FFFF0200010004000100140000207F
:1037100008000100FFF72DFC00287FF41BAF226892
:10372000136823F48063136072B646F2A81123680D
:103730001A69636A1A70626A531C6362238D013BC3
:103740002385638D013B9BB26385D9F80030B3FBC1
:10375000F1F323214B430293029B013B0293029B13
:103760006BB92022236384F83D2084F83E30226C1C
:1037700042F02002226462B684F83C30EAE6236814
:1037800059694907E8D5196841F4007119601B6946
:103790005370A6E72A4639462046FFF7C0FC0028AA
:1037A0007FF4D8AE23681A69636A1A70628D616A01
:1037B000013A92B24B1C628522686362238D506984
:1037C000013B9BB2400723857FF5E9AE032B02BF87
:1037D000136823F48063136013694B7060E700BFC4
:1037E000704770477047704770477047704790F850
:1037F0003D2008B5036DD2B283B9C36C0268012BBA
:10380000836C05D1DBB21361036D0233036508BD20
:10381000C3F307231361036D0133F7E7036D012B36
:1038200003D1836C0268DBB2F4E7036D022B2FD166
:10383000222A05D10268136843F480731360EAE713
:10384000438D9BB263B1212A0AD1436A026813F8FF
:10385000011B11614362438D013B9BB24385D6E757
:10386000438D9BB2002BD2D1212AD0D1026851685E
:1038700021F4E0615160116841F40071116020226F
:10388000036380F83D2080F83E30FFF7AFFFBEE7CE
:1038900003685A69120644BF00221A61B7E77047ED
:1038A00070477047002337B546F2A81101932C4B9F
:1038B000406A1B6890F83D20B3FBF1F323214B4392
:1038C00001930368D2B2019941BB016C41F0200120
:1038D0000164446B0CB10021A162816B09B1002528
:1038E0008D621D6825F480651D600025458504B145
:1038F000656301B14D63196821F00101196090F809
:103900003D10602911D1202380F83D30002380F83C
:103910003E300364FFF7C5FF03B030BD01990139A4
:10392000019119688905CED4D3E702F02802282A2C
:103930000ED1196841F001011960196841F48061E4
:1039400019600023036380F83D20FFF7A9FFE3E738
:10395000202380F83D30002380F83E30F5E700BF9B
:103960001400002010B590F83D2090F83E30044639
:10397000102BD9B2D2B2036801D0402913D1222A28
:1039800011D1196821F400611960596811F40061BE
:1039900006D1602A1EBF202284F83D2084F83E1004
:1039A0000022226307E002F028012829EDD100223D
:1039B000226384F83D105A6812F400624FD05A68AE
:1039C000606B22F400625A6090F82130012B374B73
:1039D0002BD04363FFF7EAF850B12268606B13689D
:1039E00023F001031360202384F83D30436B984794
:1039F000236C19071FBF2268536823F4E0635360E8
:103A000094F83D30226CDBB252070DD5282B0BD138
:103A1000274B2022E36200232046236384F83D20C5
:103A200084F83E30FFF7E1FE10BDA06B4363FFF763
:103A3000BDF80028DCD023685A69510605D51A69FB
:103A4000636A1A70636A013363622268A06B136849
:103A500023F001031360202384F83D30C6E794F877
:103A60003D10602915D1202184F83D1022645A6947
:103A7000520605D51A69636A1A70636A0133636274
:103A800022682046136823F001031360FFF709FF43
:103A9000AEE75A69500605D51A69636A1A70636AF7
:103AA000013363622046FFF7FBFEA1E7A53800085B
:103AB0000000FFFFF0B5044603688FB05A68C66A7D
:103AC00090F83E0094F83D101028C5B2C9B202D05B
:103AD000402D40F0E5829F69586910F0010F07D131
:103AE000B6F52A0F02D0B6F12A4F51D10FB0F0BD72
:103AF00096054DD5E26AB2F52A0F0CD10122E26299
:103B000094F83E20402A11D1226D52B9626C02F025
:103B1000FE021A61EAE7E26AB2F12A4FF0D1082206
:103B2000EDE7626C42F00102D2B2F2E72269B2F52F
:103B3000804F1AD194F83D20212A626C11D102F0F5
:103B4000FE021A61626B0AB1926A2AB9A26B002A5C
:103B5000CCD0926A002AC9D05A6842F400625A60F6
:103B6000C4E742F00102D2B2EBE7226D32B9626CD7
:103B7000D21102F0060242F0F002CAE7226D012AD9
:103B8000B4D1626CD21102F0060242F0F102C0E739
:103B9000060703D5960501D5626CE4E7860740F178
:103BA000F080960540F1ED8094F83E10E26A256BB6
:103BB00094F83D00C9B2222840F0DB80206D40B966
:103BC000402906D100905A6900929B690093009B9E
:103BD0008CE7216D89B92069B0F5404F0DD1019175
:103BE0005A6901929A690192019A1A6842F48072A4
:103BF0001A60236D0133236578E7618D89B251B96D
:103C000002915A6902929A690292029A1A6842F4DF
:103C100000721A6019E0618D89B2012949D112F54B
:103C2000803F1BD11A6822F480621A605A6812F42D
:103C300000620CD01A6822F480621A60002203929B
:103C40005A6903929B690393039B0023D3E7049271
:103C50005A6904929A690492049AD7E7082A1CD0F8
:103C6000202A1AD0122D0DD1012A16D11A6822F459
:103C700080621A60002205925A6905929B69059339
:103C8000059BE2E7102AF1D8864941FA02F2D707EC
:103C9000ECD41A6842F48062EBE71A6822F480627E
:103CA0001A60002206925A6906929A690692069A4A
:103CB000ACE7618D89B2022938D1102A03D87A493C
:103CC000D140CE0718D4196841F400611960002171
:103CD000079159690791996907910799196821F422
:103CE0008061196059680D05AFD5202A1BD8072AB5
:103CF0000ED8012AA9D111E0196841F48061196038
:103D00000021089159690891996908910899E9E792
:103D1000A2F10801654ACA40D00796D55A6842F414
:103D200080525A6091E712F5803FE3E7196841F449
:103D3000806119605968090505D5202A16D8072A17
:103D400009D8012A0DD0002209925A6909929B696B
:103D50000993099B79E7A2F10801544ACA40D207A6
:103D6000F1D55A6842F480525A60ECE712F5803F70
:103D7000E8E700220A925A690A929B690A930A9B11
:103D8000B4E67F0740F194805E6836053FF5AEAE3D
:103D9000070600F004063ED550053CD5002E3DD167
:103DA00094F83D20258D94F83E10D2B2E06AC9B255
:103DB000C5B9212A18D1082858D0202856D010F586
:103DC000803F53D05A6822F4E0625A601123236383
:103DD000002384F83E302023204684F83D30FFF74E
:103DE000FFFC83E6212A05D040297FF47FAE222AFA
:103DF0007FF47CAE628D92B21AB95A6822F4806266
:103E0000ADE694F83E20402A16D120460FB0BDE81A
:103E1000F040FFF7ECBC002E3FF468AE97057FF54D
:103E200065AE212939D1E16A94F83D20212A7FF439
:103E30005DAE628D92B24AB1626A12F8011B1961DD
:103E40006262638D013B9BB263854FE608290DD00A
:103E500020290BD011F5803F08D0596821F4E0618A
:103E600059601123236384F83E20B4E75A68204642
:103E700022F4E0625A601A6842F400721A60002369
:103E80002022236384F83D2094F83E2084F83E30BD
:103E9000402AA4D1FFF7AAFC28E6402D7FF426AEE5
:103EA000B3E700BFEBFFFEFF1400010001010001BA
:103EB00059680E053FF51AAE450600F0040140F1C1
:103EC0008680500540F18380002940F0838094F87B
:103ED0003D20222A7FF40AAEE06A628D92B2032A64
:103EE00014D91A69636A1A70636A01336362638D55
:103EF000013B9BB26385638D9BB2032B7FF4F6ADD0
:103F00002268536823F480635360EFE5E56A022D6D
:103F10003FF473AF012A3FF670AF0B9146F2A81140
:103F2000784A1268B2FBF1F202EB82020B920B9A12
:103F3000013A0B920B99D1B9226C204642F0200233
:103F400022645A6822F4E0625A601A69636A1A703D
:103F5000636A01336362638D013B9BB263852023F7
:103F600084F83D3084F83E10FFF79AFCBEE51A68ED
:103F700012F40072DBD1196821F48061196059686C
:103F800021F4E06159601969636A1970636A013349
:103F90006362638D013B9BB26385202384F83D30CF
:103FA00094F83E3084F83E20402B04D12263204612
:103FB000FFF775FC9AE5082801D0202801D10023DD
:103FC00000E0122320462363FFF70BFC8EE5002957
:103FD0003FF48CAD92057FF589ADE26A608D616A30
:103FE00080B2042809D15A6822F480625A601B69A1
:103FF0000B70636A0133636223E7608D80B203282C
:104000000CD15868042A20F480605860EFD0022A4E
:10401000EDD01A6822F480621A60E8E7608D80B201
:104020000228E4D1042A33D007D8012A07D0022A73
:104030002ED0186840F4007004E0102AF9D11868F6
:1040400020F4806018601B690B70616A4B1C63620E
:10405000638D013B9BB2638523681B694B70636A68
:10406000216801336362638D013B9BB263854B68BA
:1040700023F440734B60202384F83D3094F83E30A5
:10408000402B4FF0000384F83E3005D123638EE7C8
:10409000186840F48060D5E7082A90D0202A8DE780
:1040A000206C10B30025586987072DD596052BD5B0
:1040B000226C02B19D6994F83D2002F02802282A62
:1040C00016D15A682F0622F480625A604FF000031E
:1040D00085F00401204654BFA289228BC1F38001E0
:1040E00084F83C30FFF780FB00E59D695869DBE709
:1040F00000220C9259690C919B6984F83C200C9326
:104100000C9BF3E414000020C60640F1B180950535
:1041100040F1AE8094F83D505A68EDB222F4E0626E
:104120005A6000220D925A690D921A6842F00102FB
:104130001A600D9A1A6822F480621A605A68100593
:1041400020D505F0F702222A4AD1A06B02685268F6
:1041500092B26285628D92B21AB1226C42F0040270
:1041600022645A6822F400625A60FEF7F9FD0128C1
:1041700008D0A06B794B4363FEF718FD10B1A06B1C
:10418000436B9847638D9BB213B323685A695107F9
:1041900009D51A69636A1A70636A01336362638DB1
:1041A000013B9BB2638523685A69520609D51A6997
:1041B000636A1A70636A01336362638D013B9BB269
:1041C0006385638D9BB21BB1236C43F004032364AE
:1041D000236C13B320460FB0BDE8F040FFF7C2BB1D
:1041E000606B0268526892B26285628D92B21AB1B7
:1041F000226C42F0040222645A6822F400625A607F
:10420000FEF7AEFD0128BDD0606B544B4363FEF753
:10421000CDFC0028B6D0606BB2E72A2D06D123630F
:104220002823204684F83D30FFF7DDFA94F83D302E
:10423000282B0CD14A4B2022E36200232046236323
:1042400084F83D2084F83E30FFF7CFFA4EE4236B2C
:10425000222B02D0222D7FF449AC0023202223639D
:1042600084F83D2084F83E302046FFF7BCFA3DE458
:1042700001F0F701212900F0040535D1070627D503
:10428000560525D53DBB94F83D00628DC0B292B273
:10429000002A3FF42BAC626A12F8015B1D61626276
:1042A000628D013A92B26285628D92B2002A7FF4E9
:1042B0001DAC29287FF41AAC5A68204622F480628B
:1042C0005A602823216384F83D30FFF78BFA0DE410
:1042D000002D3FF40BAC95057FF508AC628D92B2D2
:1042E000002A3FF403ACA7E5400627D5510525D5A4
:1042F0003DBB94F83D20618DD2B289B200293FF4D4
:10430000F5AB1969636A1970636A01336362638D7F
:10431000013B9BB26385638D9BB2002B7FF4E6ABC0
:104320002A2A7FF4E3AB2268536823F48063536046
:1043300022232363282384F83D3095E7002D3FF4A2
:10434000D5AB92057FF5D2AB628D92B2002A3FF4D5
:10435000CDAB1A69636A1A704BE600BFA538000836
:104360000000FFFF2DE9F341054638B30368DB0782
:1043700010D42B689F075ED42B68190700F1958035
:104380002B685A0700F1C180EB69002B40F02C81AB
:10439000002029E0904C636803F00C03042B07D045
:1043A000636803F00C03082B0AD16368DE0307D5AA
:1043B00023689C03DDD56B68002BDAD1012013E064
:1043C0006B68B3F5803F12D1236843F480332360D8
:1043D000FEF702FB064623689803CAD4FEF7FCFAF0
:1043E000801B6428F7D9032002B0BDE8F0819BB997
:1043F000236823F480332360236823F4802323601D
:10440000FEF7EAFA064623689903B2D5FEF7E4FA06
:10441000801B6428F7D9E6E7B3F5A02F236803D102
:1044200043F480232360CFE723F4803323602368A1
:1044300023F48023CBE7684C636813F00C0F07D09C
:10444000636803F00C03082B10D16368DA030DD402
:1044500023689B0702D52B69012BAFD123686A69BA
:1044600023F0F80343EAC203236085E72A695B4B24
:104470006AB101221A60FEF7AFFA064623689F0769
:10448000ECD4FEF7A9FA801B0228F7D9ABE71A6033
:10449000FEF7A2FA0646236898077FF56DAFFEF790
:1044A0009BFA801B0228F6D99DE7AA694A4E4B4B1E
:1044B000E2B10122C3F88024FEF78EFA0446736A43
:1044C0009B070DD54FF4FA52454B1B68B3FBF2F333
:1044D000019300BF019B5A1E0192002BF9D14FE7B7
:1044E000FEF77AFA001B0228E9D97CE7C3F880249A
:1044F000FEF772FA0446736A9F077FF541AFFEF735
:104500006BFA001B0228F6D96DE7334CE369D8003B
:1045100024D40127E36943F08053E361E36903F0A6
:1045200080530093009B2F4E3368D90518D5EB6854
:10453000012B26D1236A43F001032362FEF74CFAD4
:1045400041F288380646236A9B073FD5002F3FF487
:104550001BAFE36923F08053E36115E70027E2E72F
:10456000336843F480733360FEF736FA804633686D
:10457000DA05DCD4FEF730FAA0EB08006428F6D99F
:1045800031E7ABB9236A41F2883823F00103236293
:10459000236A23F004032362FEF71EFA0646236A09
:1045A0009807D3D5FEF718FA801B4045F7D91AE7CC
:1045B000052B236A03D143F004032362BAE723F0F7
:1045C00001032362236A23F00403B6E7FEF704FA2B
:1045D000801B4045B7D906E7001002400000424268
:1045E00014000020007000402A4C626802F00C02A7
:1045F000082A3ED00022022B274B1A662CD1FEF748
:10460000EBF906462368990120D42B6AB3F5803F65
:1046100005D16268A96822F400320A436260696ABF
:1046200062680B4322F474121343012263601A4B35
:104630001A66FEF7D1F9054623689A013FF5A8AE40
:10464000FEF7CAF9401B0228F6D9CCE6FEF7C4F9FA
:10465000801B0228D6D9C6E6FEF7BEF905462368B8
:104660009B017FF595AEFEF7B7F9401B0228F6D9FE
:10467000B9E6012B3FF4A2AE60682B6A00F48032E9
:104680009A427FF49BAE6B6A00F47010C01A18BF98
:104690000120A9E600100240000042420F4A536880
:1046A00003F00C01042914D0082914D10C48C3F3D9
:1046B0008341DB03405C09D553680A4AC3F3404396
:1046C0005043094AD35CB0FBF3F07047074B5843A3
:1046D0007047044870470648704700BF001002400A
:1046E000B2AE00080024F400B0AE000800093D009E
:1046F00000127A002DE9F0410D46044610B9012060
:10470000BDE8F081444A136803F007038B4228D3C5
:1047100021688E0730D4CA0743D43F4A136803F098
:104720000703AB4265D822683C4D12F0040F6CD1F0
:10473000130706D56B68226923F4605343EAC2036A
:104740006B60FFF7ABFF6B68354AC3F30313D35CB1
:10475000D840344B1860344B1868FEF7FBF8002043
:10476000CEE7136823F007030B431360136803F0CD
:1047700007038B42C3D1CBE7284B11F0040F1EBFB8
:104780005A6842F4E0625A60080742BF5A6842F42D
:1047900060525A605A68A06822F0F00202435A60E0
:1047A000B9E762681D4E012A33681AD113F4003F3D
:1047B000A5D0736841F2883823F003031343736074
:1047C000FEF70AF907467368626803F00C03B3EB5F
:1047D000820FA2D0FEF700F9C01B4045F3D9032099
:1047E0008EE7022A02D113F0007FE1E713F0020FF7
:1047F000DEE7136823F007032B431360136803F00D
:104800000703AB427FF47BAF8DE76B68E16823F46D
:10481000E0630B436B608BE7002002400010024016
:10482000A0AE0008140000201C000020044B054A24
:104830005B68C3F30223D35C034A1068D840704717
:104840000010024098AE0008140000202DE9F34744
:104850001F46894690460446FEF7BEF80A9D3D4431
:104860002D1AFEF7B9F88246254B1E68C6F3CB36E3
:104870006E4301962268936839EA03030CBF012353
:104880000023434501D100202EE07B1CF3D0FEF72E
:10489000A3F8A0EB0A00A84229D323685A6822F0A3
:1048A000E0025A606268B2F5827F0AD1A268B2F56E
:1048B000004F02D0B2F5806F03D11A6822F0400297
:1048C0001A60A26AB2F5005F07D11A6822F400529A
:1048D0001A601A6842F400521A60012384F85130B9
:1048E0000023032084F8503002B0BDE8F087019A1D
:1048F000019B002A03F1FF3308BF15460193B9E776
:104900001400002073B50B4600920D461646022196
:1049100001220446FFF79AFF024628B1636D032087
:1049200043F02003636507E02B4680212046009674
:10493000FFF78CFF0028F1D102B070BD10B504461E
:10494000002851D0436A002B4AD14268B2F5827FD9
:1049500000D0C3610023A36294F8513003F0FF023A
:1049600023B9204684F85020FDF724F8022322685A
:1049700084F851301368A06823F040031360636823
:1049800000F4044003F482730343E068A16900F477
:1049900000600343206900F002000343606900F0F7
:1049A0000100034301F400700343E069090C00F0C7
:1049B00038000343206A01F0040100F08000034343
:1049C000A06A00F40050034313605160D3690020D3
:1049D00023F40063D3610123606584F8513010BD76
:1049E0000023C0E90433B5E70120F8E72DE9F743D8
:1049F00004461F460D469046FDF7EEFF94F85130F1
:104A00008146012BD8B240F09F80002D74D0B8F1C0
:104A1000000F71D094F85030012B00F095800323E3
:104A200084F8513000236365C4E91033A4F836805C
:104A3000A363A387E387A3682668B3F5004F84F8D0
:104A400050002563A4F8348007D1336823F0400375
:104A50003360336843F4804333603368E2685B0655
:104A60005EBF336843F040033360B2F5006F6368A4
:104A700045D113B1B8F1010F07D135F8023BF3600E
:104A80002563E38E013B9BB2E386E38E9BB2D3B9F1
:104A90004A4639462046FFF735FF002851D1A36822
:104AA00033B901932368DA6801929B680193019BF3
:104AB000012384F851300023606D84F85030C01A0F
:104AC00018BF012018E022689368980705D5236B6A
:104AD00033F8021BD1602363D3E7FDF77DFFA0EB22
:104AE0000900B842D1D3791CCFD0012384F85130CA
:104AF0000023032084F8503003B0BDE8F08313B1E5
:104B0000B8F1010F08D12B783373236B0133236382
:104B1000E38E013B9BB2E386E38E9BB2002BB7D0C2
:104B200023689A68920703D5226B12781A73ECE710
:104B3000FDF752FFA0EB0900B842EDD37B1CEBD090
:104B4000D3E720236365AAE70220D5E770B590F884
:104B500051300446012BDDB24ED1002936D0002A57
:104B600034D090F85030012B46D0032380F85130D8
:104B700000234365C0E91033C28683638387C387FC
:104B800083688286B3F5004F026880F85050016355
:104B900007D1136823F040031360136843F4804384
:104BA00013600026A06C154B4663C362144B0C3295
:104BB0008362144B0363E38E9BB2FDF7BBFF38B1F6
:104BC000636D84F8506043F010036365284670BD40
:104BD000002523681A6852065EBF1A6842F0400238
:104BE0001A6084F850505A6842F020025A605A689D
:104BF00042F002025A60E9E70225E7E70D4C00089F
:104C00003B4C0008194C00087047704708B5406AD3
:104C1000FFF7FBFF08BD7047406A08B5026853689C
:104C200023F003035360436D43F0100343650123F6
:104C300080F85130FFF7EFFF08BD37B50546446AED
:104C4000FDF7CAFE2B6802461B689B0626D4236824
:104C50002046596821F020015960596821F002016D
:104C600059606421FFF74EFE18B1636D43F02003D5
:104C70006365A36833B901932368DA6801929B687E
:104C80000193019B0023E386012384F85130636D77
:104C900023B12046FFF7BFFF03B030BD2046FFF72A
:104CA000B3FFF9E7034630B590F83E0093F83F2094
:104CB00093F8425093F84340C0B2D2B2EDB2E4B29E
:104CC000E1B9012859D1012D17D1022283F83E20E4
:104CD00083F842201A68116A21F001011162116AF9
:104CE00041F001011162D16841F002010020D16060
:104CF0001A68136843F00103136030BD042915D10D
:104D0000012A3AD1012C38D1022283F83F2083F8BE
:104D100043201A68116A21F010011162116A41F0F2
:104D200010011162D16841F00401DFE7012824D1AC
:104D3000012AE2D1012DE0D1012CDED1022283F83B
:104D40003E2083F83F2083F8422083F843201A68EE
:104D5000116A21F001011162116A41F00101116231
:104D6000116A21F010011162116A41F01001116203
:104D7000D16841F00201D160D4E70120BDE770475E
:104D8000704770477047036870B5DD681E69044658
:104D9000B1070DD5AA070BD56FF002021A610122E7
:104DA00002779B699B0769D0FCF7B2FD002323774C
:104DB000710710D56A070ED56FF0040223682046EC
:104DC0001A61022222779B6913F4407F5CD0FCF7C2
:104DD0009FFD0023237733070FD528070DD56FF0EC
:104DE0000802236820461A6104222277DB699907AA
:104DF00050D0FCF78DFD00232377F20610D5EB068B
:104E00000ED56FF01002236820461A61082222771F
:104E1000DB6913F4407F43D0FCF77AFD002323774E
:104E2000F00708D5E90706D56FF001022368204690
:104E30001A61FFF7A4FF320608D52B0606D56FF0DE
:104E40008002236820461A6100F0F5F8700608D544
:104E5000690606D56FF04002236820461A61FFF705
:104E600091FFB20622D5AB0620D56FF02002236851
:104E70002046BDE870401A6100F0DCB8FFF780FF03
:104E80002046FFF77EFF91E7FFF77AFF2046FFF706
:104E900078FF9EE7FFF774FF2046FFF772FFAAE74F
:104EA000FFF76EFF2046FFF76CFFB7E770BD00000D
:104EB0001E4A036890420AD0B0F1804F07D0A2F595
:104EC0009432904203D002F58062904215D14A6834
:104ED00023F070031343154A90420AD0B0F1804F7B
:104EE00007D0A2F59432904203D002F5806290423E
:104EF00003D1CA6823F4407313434A6923F0800343
:104F0000134303608B68C3620B688362074B98424C
:104F100004BF0B690363012343610369DB0742BFDD
:104F2000036923F001030361704700BF002C0140B7
:104F3000F8B50D46044600284CD090F83D3003F0FB
:104F4000FF021BB980F83C20FDF7AAFC0223214692
:104F500084F83D3051F8040B836823F4804323F038
:104F600007038360FFF7A4FF81682A688369AE693D
:104F70001143AA6823F4407323F0030342EA062294
:104F80001A432B69EE691B0143EA0623EE6822F4FB
:104F90007C4233432E6A22F0FC0243EA0633076A5E
:104FA0006E6913436A6827F0220742EA061281609D
:104FB0001743836101230762002084F8463084F898
:104FC0003E3084F83F3084F8423084F8433084F82F
:104FD0003D30F8BD0120FCE730B590F83C3002468A
:104FE000012B4FF0020022D0136882F83D005C686C
:104FF0000D6824F070042C4398685C600C4CA3424C
:105000000AD0B3F1804F07D0A4F59434A34203D063
:1050100004F58064A34204D1496820F08000014374
:1050200099600123002082F83D3082F83C0030BDB9
:10503000002C014070477047002B2DE9F0471D46BA
:10504000BBBF03F100431D4600232D2388B0144647
:10505000B8BF1446129A109E1370149BDDF84CA032
:1050600023F02008B8F1460F05D0B8F1450F00D164
:105070000136022300E0032307AA049206AACDE921
:1050800002A2CDE9003622462B4600F06DFEB8F1B3
:10509000470F074619D1119BDB070ED500EB060918
:1050A0000022002320462946FBF732FD08B1CDF847
:1050B0001C903022079B4B451ED33846079B159A00
:1050C000DB1B136008B0BDE8F087B8F1460F00EBBA
:1050D0000609E5D10378302B0AD1002200232046AF
:1050E0002946FBF715FD18B9C6F10106CAF800609C
:1050F000DAF800309944D3E7591C07911A70D9E7C0
:10510000F7B50029B6BF2D232B2349420929027088
:10511000437029DD0DF107031D460A27B1FBF7F6A1
:105120001A4607FB1614303402F8014C0C46632C67
:10513000314603F1FF33F1DC3031941E03F8011CDA
:105140002346411CAB420AD30DF109039B1AAC4222
:1051500088BF002302330344181A03B0F0BD13F8CC
:10516000016B01F8016FEDE7302330318370C170BE
:10517000031DF1E72DE9F04F91B00C46DDF8688092
:1051800016461F46054600F0E1FC036818460893E2
:10519000FAF7DEFF00230E93D8F8003009900733AA
:1051A00023F0070303F1080294F818A0D4F800B024
:1051B000C8F80020D3E9008929F000430B93CDF80B
:1051C00028804FF0FF32DDE90A01C4E912899C4BC7
:1051D000FBF7D0FC70BBDDE90A014FF0FF32984BC2
:1051E000FBF7AAFC30BB0022002340464946FBF7F0
:1051F00099FC10B12D2384F84330924A924BBAF1B6
:10520000470F94BF9046984603234FF0000923614F
:105210002BF00403236033462146284600970FAA4B
:1052200000F0D4F9013040F090804FF0FF3011B021
:10523000BDE8F08F42464B4640464946FBF79AFC94
:1052400048B14B46002BB8BF2D23804AB8BF84F825
:1052500043307F4BD3E763680AF0DF015A1C3FD12C
:105260000623636000224BF48063236006920EAA3B
:10527000CDE904A20DAA03920DF13302CDE901326A
:1052800063684246009328464B460A91FFF7D4FED6
:105290000A99804647290D9928D1C81C02DB63680A
:1052A000994240DDAAF1020A5FFA8AFA52460139B0
:1052B00004F150000D91FFF723FF0E9A8146131859
:1052C000012A236102DC2268D20701D50133236160
:1052D0009DF83330002B9ED02D2384F843309AE77D
:1052E0004729BFD1002BBDD10123BAE7BAF1650F21
:1052F000DCD9BAF1660F18D1002963680BDD216192
:1053000013B92268D00702D501330B4423614FF053
:105310000009A165DCE713B92268D20701D5023381
:10532000F4E70123F2E74FF0670A0E9B994205DB91
:1053300023682161D807EAD54B1CE7E70029CCBFD9
:105340000122C1F102021344E0E723685A0507D4A1
:105350002369424631462846B84701302BD164E7DD
:10536000BAF1650F40F2DC80D4E91201002200237B
:10537000FBF7CEFB002833D0012331462846354ABF
:10538000B84701303FF451AFDDE90D38434502DB4A
:105390002368D8070FD5DDE9082331462846B847EA
:1053A00001303FF442AF4FF0000908F1FF3804F13B
:1053B0001A0AC84509DC23689B0700F10281E068EE
:1053C0000F9B9842B8BF184631E701235246314639
:1053D0002846B84701303FF428AF09F10109E8E752
:1053E0000D9B002B38DC012331462846194AB8476B
:1053F00001303FF41AAFDDE90D3959EA030302D158
:105400002368D907D7D5DDE9082331462846B847B0
:1054100001303FF40AAF4FF0000A04F11A0B0D9B64
:105420005B42534501DC4B4693E701235A46314624
:105430002846B84701303FF4F8AE0AF1010AEEE71A
:10544000FFFFEF7FC2AE0008C6AE0008CAAE00087C
:10545000CEAE0008D2AE0008A36DDDF838A05345EB
:10546000A8BF5346002B994636DC4FF0000B29EAC3
:10547000E97904F11A02A36D0A93A3EB09035B45D2
:1054800031DC0D9B9A453ADC2368DA0737D40D9B53
:10549000AAEB03090A9BAAEB03039945A8BF994607
:1054A000B9F1000F33DC4FF0000829EAE97904F183
:1054B0001A0B0D9BAAEB0303A3EB090343457FF7EC
:1054C0007AAF01235A4631462846B84701303FF4A7
:1054D000ACAE08F10108ECE7424631462846B84731
:1054E0000130C2D1A1E60123314628460A92B847CD
:1054F00001303FF49AAE0A9A0BF1010BBBE731463B
:10550000DDE908232846B8470130C0D18DE60A9A64
:105510004B46314628464244B8470130C3D184E661
:10552000DDF838A0BAF1010F01DCDB0736D5012325
:10553000424631462846B84701303FF476AEDDE9B1
:10554000082331462846B84701303FF46EAED4E90F
:105550001201002200230AF1FF3AFBF7D9FAC0B981
:10556000534608F1010231462846B84701300CD1B4
:105570005BE601235A4631462846B84701303FF4DE
:1055800054AE08F10108D045F3DB4B4604F150025C
:10559000E0E64FF0000804F11A0BF4E7012342465D
:1055A000E1E701234A4631462846B84701303FF437
:1055B0003CAE08F10108E3680F995B1A4345F0DC43
:1055C000FDE64FF0000804F11909F4E72DE9F04772
:1055D000164698468A680B6907469342B8BF134639
:1055E000336091F843200C46DDF820900AB1013376
:1055F00033602368990642BF3368023333602568FD
:1056000015F0060506D104F1190AE36832689B1A01
:10561000AB422BDC94F843302268003B18BF0123D7
:10562000920630D44146384604F14302C84701305F
:1056300023D02368226903F00603042B14BF00253E
:1056400033684FF0000608BFE56804F11A0408BF8C
:10565000ED1A54F8123C08BF25EAE5759342C4BF21
:105660009B1AED18B5421AD1002008E001235246DA
:1056700041463846C847013003D14FF0FF30BDE8FE
:10568000F0870135C1E73020E11881F843005A1C4A
:1056900094F845102244023382F84310C2E70123F4
:1056A000224641463846C8470130E6D00136D9E7A0
:1056B0002DE9FF470F7E9146782F80460C469A468B
:1056C0000C9E01F1430207D8622F0AD8002F00F088
:1056D000D380582F00F0BA8004F1420684F842705B
:1056E0003AE0A7F16303152BF6D801A151F823F096
:1056F000495700085D570008D9560008D9560008D8
:10570000D9560008D95600085D570008D956000838
:10571000D9560008D9560008D95600085F58000825
:105720008757000819580008D9560008D9560008AC
:1057300081580008D956000887570008D956000834
:10574000D95600082158000833681A1D1B683260BA
:1057500004F1420684F8423001239EE03368206859
:10576000191D3160060601D51D6803E04506FBD50D
:10577000B3F90050002D03DA2D236D4284F8433035
:105780000A23594811E021683368080653F8045B7E
:1057900002D4490648BFADB26F2F336014BF0A234D
:1057A00008235148002184F843106668002EA8BFE2
:1057B0002168A660A4BF21F0040121600DB9002E6C
:1057C0004BD01646B5FBF3F103FB1157C75D06F846
:1057D000017D2F46BB420D46F4D9082B0BD123681F
:1057E000DF0708D5236961689942DEBF302306F8D8
:1057F000013C06F1FF36921B22614B462146404692
:10580000CDF800A003AAFFF7E1FE01304AD14FF026
:10581000FF3004B0BDE8F087236843F02003236025
:105820007827324884F84570236831681F0651F89C
:10583000045B02D45F0648BFADB23160D90744BFF4
:1058400043F0200323601DB11023ABE72648E9E7AE
:10585000236823F020032360F6E71646BDE733688C
:105860002568181D616930602E061B6801D5196016
:1058700002E06806FBD51980002316462361BCE7C9
:10588000336800211A1D32601E686268304600F0DD
:10589000D4F908B1801B606063682361002384F839
:1058A0004330AAE73246494640462369D047013093
:1058B000ADD023689B0713D4E068039B9842B8BF20
:1058C0001846A6E70123324649464046D0470130F4
:1058D0009DD00135E36803995B1AAB42F2DCEBE73C
:1058E000002504F11906F5E7D4AE0008E5AE00087E
:1058F000002310B50446C0E90033C0E904338360D7
:1059000081814366C2818361194608225C3000F0C0
:1059100014F90D4B246263620C4BA3620C4BE362DF
:105920000C4B23630C4B9C4206D003F1680294425B
:1059300002D0D0339C4205D104F15800BDE810409C
:1059400000F078B910BD00BFB55A0008D75A00085A
:105950000F5B0008335B0008080D0020024A034972
:10596000034800F069B800BF20000020A5750008BA
:105970003000002041680C4B10B59942044601D01C
:1059800001F010FEA168094B994202D0204601F0B7
:1059900009FEE168064B994204D02046BDE810405C
:1059A00001F000BE10BD00BF080D0020700D0020EA
:1059B000D80D002010B50B4B0B4C0C4A20461A603A
:1059C00004210022FFF794FF04F16800012209215D
:1059D000FFF78EFF04F1D0000222BDE81040122133
:1059E000FFF786BF400E0020080D00205D5900081B
:1059F000014800F020B900BF490E0020014800F026
:105A00001BB900BF490E002010B50446FFF7F0FF98
:105A1000236A1BB1BDE81040FFF7F0BF044B2362BF
:105A2000044B1B68002BF5D1FFF7C4FFF2E700BF62
:105A300075590008400E00202DE9F84307468846B6
:105A400014460026D4E90195B9F1010905D5246869
:105A5000002CF7D13046BDE8F883AB89012B07D97C
:105A6000B5F90E30013303D029463846C047064306
:105A70006835E9E70EB46FF0004100B59CB01DAB8E
:105A800002900690079104910848094953F8042BA5
:105A90000591006802A9019301F008FC0022029B15
:105AA0001A701CB05DF804EB03B070472C000020A6
:105AB0000802FFFF10B50C46B1F90E1000F06CF8AB
:105AC0000028ABBF636DA3891B1823F48053ACBFC0
:105AD0006365A38110BD2DE9F0411F468B89054602
